:100000000C943A000C944C000C944C000C944C0052
:100010000C944C000C944C000C944C000C944C0030
:100020000C944C000C944C000C944C000C944C0020
:100030000C944C000C944C000C944C000C944C0010
:100040000C944C000C944C000C944C000C949600B6
:100050000C944C005A005C005E006000620064007A
:10006000660068006A006C006E0070007200740028
:100070007600780011241FBECFE5D4E0DEBFCDBFEF
:1000800020E0A0E6B0E001C01D92A236B207E1F781
:100090000E94D0000C94F2000C9400001BBA462F72
:1000A00050E04031510530F5FA01E65DFF4F9BB35A
:1000B0000C94EC00976B1DC0906A1BC0976C19C024
:1000C000966E17C0946F15C0966713C0976711C0DE
:1000D000946A0FC0976F0DC0966F0BC0956F09C0E3
:1000E000936707C0976105C0936E03C0976501C011
:1000F00095659BBB813059F028F0823069F08330E0
:1001000081F0089588B38F7188BBC49A089588B32D
:100110008F7288BBC59A089588B38F7488BBC69ABE
:10012000089588B38F7888BBC79A08951F920F925D
:100130000FB60F9211242F933F934F935F936F93BA
:100140007F938F939F93AF93BF93EF93FF93809190
:100150006000909161009C012F5F3F4F30936100E0
:100160002093600060E00E944E00809160009091BA
:100170006100049724F01092610010926000FF91DA
:10018000EF91BF91AF919F918F917F916F915F910F
:100190004F913F912F910F900FBE0F901F90189588
:1001A0008FEF8ABB8FE087BB84E083BF83B7886013
:1001B00083BF8CE08CBF82E089BF789490E182B3EA
:1001C000892782BB2FE936E881E02150304080400A
:1001D000E1F700C00000F3CFEE0FFF1F0590F49190
:0801E000E02D0994F894FFCF13
:00000001FF
