:100000000C9458000C9475000C9475000C947500B9
:100010000C9475000C9475000C9475000C9475008C
:100020000C9475000C9475000C9475000C9475007C
:100030000C9475000C9475000C9475000C9475006C
:100040000C9475000C9475000C9475000C942701A9
:100050000C947500D900DC00E000E300E600E90044
:10006000EC00EF00F200F500F800FB00FE000101DB
:10007000040107010B010B010B010B010B010B012B
:100080000B010B010B010B010B010B010B010B0110
:100090000B010B010B010B010B010B010B010B0100
:1000A0000B010B010B010B010B010B010B010A01F1
:1000B00011241FBECFE5D4E0DEBFCDBF10E0A0E627
:1000C000B0E0E4E8F3E002C005900D92A236B1077B
:1000D000D9F720E0A2E6B0E001C01D92A436B20735
:1000E000E1F70E947C010C94C0010C940000CF92B7
:1000F000DF92EF92FF920F931F93CF93DF93C82F5E
:10010000F9011082609160007091610080E090E0E0
:10011000411114C0F8E0CF9FE0011124DC01CB01B4
:1001200004C0B695A79597958795CA95D2F7BC0157
:10013000CD016F7077278827992726C0603147E265
:1001400074078105910548F400E010E0D0E02AE052
:10015000C22ED12CE12CF12C05C081E0F901808365
:1001600080E013C00C171D074CF4A70196010E94F4
:100170009801CA01B9010F5F1F4FF4CF2AE030E0A8
:1001800040E050E00E949801862FDF91CF911F91AF
:100190000F91FF90EF90DF90CF9008951BBA462FFC
:1001A00050E04E325105B8F5FA01E65DFF4F0C9470
:1001B000BA019BB3976B02C09BB3906A9BBB2BC0E9
:1001C0009BB3976CFBCF9BB3966EF8CF9BB3946FAA
:1001D000F5CF9BB39667F2CF9BB39767EFCF9BB3F7
:1001E000946AECCF9BB3976FE9CF9BB3966FE6CF42
:1001F0009BB3956FE3CF9BB39367E0CF9BB39761BE
:10020000DDCF9BB3936EDACF9BB39765D7CF9BB30C
:100210009565D4CFDE9A813059F028F0823069F0AC
:10022000833081F0089588B38F7188BBC49A089594
:1002300088B38F7288BBC59A089588B38F7488BBC2
:10024000C69A089588B38F7888BBC79A08951F927D
:100250000F920FB60F9211242F933F934F935F93FA
:100260006F937F938F939F93AF93BF93EF93FF937E
:100270004091620050916300609160007091610054
:10028000CB01A0E0B0E09A01332753E0220F331FE7
:100290005A95E1F704C0B695A795979587952A9545
:1002A000D2F7BC01CD016F70772788279927842F5B
:1002B0000E94CE008091620090916300019684308C
:1002C00091052CF4909363008093620004C0109217
:1002D000630010926200FF91EF91BF91AF919F91E7
:1002E0008F917F916F915F914F913F912F910F90DF
:1002F0000FBE0F901F9018958FEF8ABB8FE087BBC2
:1003000084E083BF83B7886083BF8CE08CBF82E0CA
:1003100089BF789490E182B3892782BB2FE936E8C0
:1003200081E0215030408040E1F700C00000F3CF71
:10033000A1E21A2EAA1BBB1BFD010DC0AA1FBB1FE9
:10034000EE1FFF1FA217B307E407F50720F0A21B5B
:10035000B30BE40BF50B661F771F881F991F1A94C8
:1003600069F760957095809590959B01AC01BD01F2
:10037000CF010895EE0FFF1F0590F491E02D099431
:04038000F894FFCF1F
:02038400CDABFF
:00000001FF
