:100000000C9458000C946A000C946A000C946A00DA
:100010000C946A000C946A000C946A000C946A00B8
:100020000C946A000C946A000C946A000C946A00A8
:100030000C946A000C946A000C946A000C946A0098
:100040000C946A000C946A000C946A000C940201EF
:100050000C946A00B400B700BB00BE00C100C4002D
:10006000C700CA00CD00D000D300D600D900DC0004
:10007000DF00E200E600E600E600E600E600E6005B
:10008000E600E600E600E600E600E600E600E60040
:10009000E600E600E600E600E600E600E600E60030
:1000A000E600E600E600E600E600E600E600E50021
:1000B00011241FBECFE5D4E0DEBFCDBF20E0A0E617
:1000C000B0E001C01D92A436B207E1F70E948D0195
:1000D0000C94C8010C940000CF93DF93582FF901C2
:1000E00010828091600090916100411110C023E066
:1000F00030E0251B3109220F331F220F331F02C0AE
:10010000969587952A95E2F78F7099271FC08031C1
:10011000F7E29F0748F4E0E0F0E023E030E0251B41
:100120003109CAE0D0E005C081E0F901808380E0B8
:100130000DC0E217F30734F4BE010E94AE01CB01FB
:100140003196F7CF6AE070E00E94AE01DF91CF9167
:1001500008951BBA462F50E04E325105B8F5FA010A
:10016000E65DFF4F0C94C2019BB3976B02C09BB33B
:10017000906A9BBB2BC09BB3976CFBCF9BB3966ED7
:10018000F8CF9BB3906FF5CF9BB39667F2CF9BB33D
:100190009767EFCF9BB3946AECCF9BB3976FE9CF90
:1001A0009BB3966FE6CF9BB3956FE3CF9BB39367FB
:1001B000E0CF9BB39761DDCF9BB3936EDACF9BB358
:1001C0009765D7CF9BB39565D4CFDE9A813059F030
:1001D00028F0823069F0833081F0089588B38F7100
:1001E00088BBC49A089588B38F7288BBC59A089556
:1001F00088B38F7488BBC69A089588B38F7888BBFC
:10020000C79A08951F920F920FB60F9211242F9341
:100210003F934F935F936F937F938F939F93AF938E
:10022000BF93EF93FF93CF93DF931F92CDB7DEB7CA
:10023000198246B343FB442740F9609160007091F6
:1002400061009E012F5F3F4F809162000E946C0011
:100250009981992311F06DE201C0682F80916200AD
:100260000E94A90080916200909163000196843001
:1002700091052CF4909363008093620004C0109267
:100280006300109262000F90DF91CF91FF91EF9188
:10029000BF91AF919F918F917F916F915F914F919E
:1002A0003F912F910F900FBE0F901F9018959FE0D8
:1002B00020E030E061E0220F331F90FD02C0939AEE
:1002C00001C0939891FD02C0929A01C0929892FD4C
:1002D00002C0909A01C09098892F85958595859543
:1002E00011F4919A01C09198E3ECF9E03197F1F79C
:1002F00000C0000086B3869586958627482F4170FA
:1003000050E0242B352BE3ECF9E03197F1F700C0F6
:100310000000915080F6C90108952FE986E891E028
:10032000215080409040E1F700C000008FEF8ABB71
:1003300090EF97BB84BB81BBC29A84E083BF83B735
:10034000886083BF8CE08CBF82E089BF78940E9474
:1003500057019093610080936000F9CFAA1BBB1BEB
:1003600051E107C0AA1FBB1FA617B70710F0A61BB5
:10037000B70B881F991F5A95A9F780959095BC01D6
:10038000CD010895EE0FFF1F0590F491E02D099423
:04039000F894FFCF0F
:00000001FF
