:100000000C9458000C946A000C946A000C946A00DA
:100010000C946A000C946A000C946A000C946A00B8
:100020000C946A000C946A000C946A000C94B2015F
:100030000C946A000C946A000C946A000C946A0098
:100040000C946A000C946A000C946A000C941401DD
:100050000C946A0077007A007E008100840087009B
:100060008A008D0090009300960099009C009F00EC
:10007000A200A500A900A900A900A900A900A90043
:10008000A900A900A900A900A900A900A900A90028
:10009000A900A900A900A900A900A900A900A90018
:1000A000A900A900A900A900A900A900A900A80009
:1000B00011241FBECFE5D4E0DEBFCDBF20E0A0E617
:1000C000B0E001C01D92A436B207E1F70E94D8014A
:1000D0000C9469020C9400001BBA462F50E04E327B
:1000E0005105B8F5FA01E65DFF4F0C9463029BB32E
:1000F000976B02C09BB3906A9BBB2BC09BB3976C62
:10010000FBCF9BB3966EF8CF9BB3906FF5CF9BB3AD
:100110009667F2CF9BB39767EFCF9BB3946AECCF10
:100120009BB3976FE9CF9BB3966FE6CF9BB3956F69
:10013000E3CF9BB39367E0CF9BB39761DDCF9BB3D6
:10014000936EDACF9BB39765D7CF9BB39565D4CF2A
:10015000DE9A813059F028F0823069F0833081F0E6
:10016000089582B38F7182BB949A089582B38F727F
:1001700082BB959A089582B38F7482BB969A089534
:1001800082B38F7882BB979A0895AC980000AC9A9E
:100190000000AC9800000895CF93DF931F92CDB775
:1001A000DEB7AE98AD9AAC9AA0989899FECFA09A77
:1001B000AC98882311F0AE9A01C0AE98AD98862F06
:1001C00082958F7080FF02C0AB9A01C0AB9881FF0F
:1001D00002C0AA9A01C0AA9882FF02C0A99A01C0CF
:1001E000A998887011F0A89A01C0A89869830E9404
:1001F000C500AD98698160FF02C0AB9A01C0AB98A1
:1002000061FF02C0AA9A01C0AA9862FF02C0A99A1F
:1002100001C0A99863FF02C0A89A01C0A8980F90D6
:10022000DF91CF910C94C5001F920F920FB60F92E1
:1002300011242F933F934F935F936F937F938F93EB
:100240009F93AF93BF93CF93DF93EF93FF938091EF
:10025000620090916300892B49F58FE020E030E047
:10026000220F331F80FF02C0939A01C0939881FF31
:1002700002C0929A01C0929882FF02C0C19A01C046
:10028000C198982F95959595959511F0C39A01C0B1
:10029000C39896B392FB442740F950E0242B352BAA
:1002A0008150F0F6309361002093600080916000EF
:1002B0009091610040916200CB9910C023E030E042
:1002C000241B3109220F331F220F331F02C09695C2
:1002D00087952A95E2F78F70992719C0803127E218
:1002E000920758F5E0E0F0E023E030E0241B31090C
:1002F000CAE0D0E0E217F30734F4BE010E944F02D7
:10030000CB013196F7CF6AE070E00E944F02682F70
:10031000842F0E946C00809162009091630001968E
:10032000843091052CF4909363008093620007C0A1
:10033000109263001092620002C06DE2E9CFFF915B
:10034000EF91DF91CF91BF91AF919F918F917F916D
:100350006F915F914F913F912F910F900FBE0F9032
:100360001F9018951F920F920FB60F9211242F9382
:100370003F934F935F936F937F938F939F93AF932D
:10038000BF93EF93FF936CB181E00E94CC00FF918B
:10039000EF91BF91AF919F918F917F916F915F91FD
:1003A0004F913F912F910F900FBE0F901F90189576
:1003B00083ED90E30197F1F700C0000087EF8ABB5F
:1003C0008BEF87BB8FEF84BB81BB84E083BF83B798
:1003D000886083BF8CE08CBF82E089BFAE98AD9807
:1003E000AB9AAA9AA998A8980E94C50083ED90E3B9
:1003F0000197F1F700C000000E94C50083ED90E373
:100400000197F1F700C000000E94C50083ED90E362
:100410000197F1F700C00000AE98AD98AB98AA9A8A
:10042000A998A8980E94C5009DE09A95F1F7000050
:1004300068E280E00E94CC006DE080E00E94CC0089
:1004400061E080E00E94CC0066E080E00E94CC0089
:1004500062E080E00E94CC0083EF91E00197F1F729
:1004600000C0000010BC89E189B98AB188618AB9ED
:1004700080B5866880BD579A7894AF9A83EC99E0EE
:100480000197F1F700C00000AF989FE926E881E0EE
:10049000915020408040E1F700C00000EECFAA1B41
:1004A000BB1B51E107C0AA1FBB1FA617B70710F05F
:1004B000A61BB70B881F991F5A95A9F78095909591
:1004C000BC01CD010895EE0FFF1F0590F491E02DC2
:0604D0000994F894FFCF2F
:00000001FF
