:1000000012C01FC01EC01DC01CC01BC01AC019C01A
:1000100018C017C034C015C014C014C012C011C01D
:1000200010C00FC00EC011241FBECFEDCDBF20E009
:10003000A0E6B0E001C01D92A436B207E1F735D0CA
:1000400072C0DECF1F920F920FB60F9211248F93C2
:100050009F938091620090916300892B49F4809175
:100060006000909161000196909361008093600020
:100070009F918F910F900FBE0F901F9018951F9218
:100080000F920FB60F9211248F939F93459906C03C
:1000900081E090E090936300809362009F918F9144
:1000A0000F900FBE0F901F9018952FE78AE196E0F2
:1000B000215080409040E1F700C000008CEF87BBEA
:1000C00088B18B6088B991E096BF82E080BF88B725
:1000D000816088BF99BF85E083BF78948FEF9CEFE4
:1000E000F89487BBE7EEF3E03197F1F700C000002A
:1000F00097BB109263001092620010926100109200
:10010000600078942091620030916300232BD1F33A
:1001100020916000309161002A30310514F4959AE5
:0A012000DFCF9598DDCFF894FFCFF4
:00000001FF
