:1000000012C01FC01EC01DC01DC01BC01AC019C019
:1000100018C017C02CC015C014C013C012C011C026
:1000200010C00FC00EC011241FBECFEDCDBF20E009
:10003000A0E6B0E001C01D92A236B207E1F73AD0C7
:100040005CC0DECF1F920F920FB60F9211248F93D8
:1000500086B383FB882780F9809361008111109219
:1000600060008F910F900FBE0F901F9018951F92F8
:100070000F920FB60F9211248F939F93809161007E
:10008000882389F08CB59DB5969587958A30910522
:1000900010F482E004C0833E910508F08FEF86BF24
:1000A00081E0809360009F918F910F900FBE0F9021
:1000B0001F90189580E492E09BBD8ABDBB9A8FB5D6
:1000C00080648FBD8EB588608EBD8EB582608EBD1A
:1000D00089B7806489BF88E088B9BA9A81E880BF0F
:1000E00081E086BF82E083BF78948091600088239E
:0E00F00011F0969AFACF9698F8CFF894FFCFB9
:00000001FF
