:1000000012C022C021C020C020C01EC01DC01CC004
:100010001BC01AC02EC018C017C016C015C014C00F
:1000200013C012C011C011241FBECFEDCDBF10E010
:10003000A0E6B0E0E6EDF0E002C005900D92A23639
:10004000B107D9F72CD045C0DBCF1F920F920FB666
:100050000F9211248F939F939091600081E08927E4
:10006000809360009F918F910F900FBE0F901F9013
:1000700018951F920F920FB60F9211248F938091B3
:100080006000882331F0969A85E38A95F1F70000A5
:1000900096988F910F900FBE0F901F901895BA9A57
:1000A00081E880BF82E083BFBB9A80E094E09BBD83
:1000B0008ABD8FB580648FBD8EB581608EBD8EB5D3
:1000C00088608EBD89B7806489BF88E088B97894DC
:0600D000FFCFF894FFCF02
:0200D600010027
:00000001FF
